:020000040800F2
:10000000000002207D260008192500081F25000891
:10001000252500082B2500083125000800000000D8
:10002000000000000000000000000000372500086C
:100030004525000800000000532500086125000840
:10004000CD260008CD260008CD260008CD260008C4
:10005000CD260008CD260008CD260008CD260008B4
:10006000CD260008CD260008CD260008CD260008A4
:10007000CD260008CD260008CD260008CD26000894
:100080006D25000881250008CD260008CD26000832
:10009000CD260008CD260008CD260008CD26000874
:1000A000CD260008CD260008CD260008CD26000864
:1000B000CD260008CD260008CD260008CD26000854
:1000C000CD260008CD260008CD260008CD26000844
:1000D000CD260008CD26000895250008CD2600086D
:1000E000CD260008CD260008CD260008CD26000824
:1000F000CD260008CD260008CD260008CD26000814
:10010000CD260008CD260008CD260008CD26000803
:10011000CD260008CD260008CD260008CD260008F3
:10012000CD260008CD260008CD260008CD260008E3
:10013000CD260008CD260008CD260008CD260008D3
:10014000CD260008CD260008CD260008CD260008C3
:10015000CD260008CD260008CD260008CD260008B3
:10016000CD260008CD260008CD260008CD260008A3
:10017000CD260008CD260008CD260008000000008E
:08018000CD260008CD26000881
:1001880010B5054C237833B9044B13B10448AFF3C9
:1001980000800123237010BD8C00002000000000A7
:1001A8008055000808B5034B1BB103490348AFF35A
:1001B800008008BD00000000900000208055000865
:1001C800034613F8012B002AFBD1181A013870478F
:1001D80053B94AB9002908BF00281CBF4FF0FF31A6
:1001E8004FF0FF3000F074B9ADF1080C6DE904CEA2
:1001F80000F006F8DDF804E0DDE9022304B07047FA
:100208002DE9F047089D04468E46002B4DD18A42C1
:10021800944669D9B2FA82F252B101FA02F3C2F1F4
:10022800200120FA01F10CFA02FC41EA030E944085
:100238004FEA1C48210CBEFBF8F61FFA8CF708FBA6
:1002480016E341EA034306FB07F199420AD91CEB7E
:10025800030306F1FF3080F01F81994240F21C81B0
:10026800023E63445B1AA4B2B3FBF8F008FB1033F8
:1002780044EA034400FB07F7A7420AD91CEB04042D
:1002880000F1FF3380F00A81A74240F207816444FD
:10029800023840EA0640E41B00261DB1D440002382
:1002A800C5E900433146BDE8F0878B4209D9002DE6
:1002B80000F0EF800026C5E9000130463146BDE870
:1002C800F087B3FA83F6002E4AD18B4202D38242DA
:1002D80000F2F980841A61EB030301209E46002D89
:1002E800E0D0C5E9004EDDE702B9FFDEB2FA82F2DE
:1002F800002A40F09280A1EB0C014FEA1C471FFA3C
:100308008CFE0126200CB1FBF7F307FB131140EA22
:1003180001410EFB03F0884208D91CEB010103F1EF
:10032800FF3802D2884200F2CB804346091AA4B2B1
:10033800B1FBF7F007FB101144EA01440EFB00FE85
:10034800A64508D91CEB040400F1FF3102D2A645EA
:1003580000F2BB800846A4EB0E0440EA03409CE789
:10036800C6F12007B34022FA07FC4CEA030C20FA36
:1003780007F401FA06F31C43F9404FEA1C4900FA56
:1003880006F3B1FBF9F8200C1FFA8CFE09FB1811D3
:1003980040EA014108FB0EF0884202FA06F20BD946
:1003A8001CEB010108F1FF3A80F08880884240F296
:1003B8008580A8F102086144091AA4B2B1FBF9F0DA
:1003C80009FB101144EA014100FB0EFE8E4508D9D5
:1003D8001CEB010100F1FF346CD28E456AD902385A
:1003E800614440EA0840A0FB0294A1EB0E01A1423F
:1003F800C846A64656D353D05DB1B3EB080261EBAD
:100408000E0101FA07F722FA06F3F1401F43C5E986
:10041800007100263146BDE8F087C2F12003D840BC
:100428000CFA02FC21FA03F3914001434FEA1C47FE
:100438001FFA8CFEB3FBF7F007FB10360B0C43EAF0
:10044800064300FB0EF69E4204FA02F408D91CEBA0
:10045800030300F1FF382FD29E422DD9023863449E
:100468009B1B89B2B3FBF7F607FB163341EA03413E
:1004780006FB0EF38B4208D91CEB010106F1FF388D
:1004880016D28B4214D9023E6144C91A46EA004684
:1004980038E72E46284605E70646E3E61846F8E616
:1004A8004B45A9D2B9EB020864EB0C0E0138A3E75F
:1004B8004646EAE7204694E74046D1E7D0467BE740
:1004C800023B614432E7304609E76444023842E7B8
:1004D800704700BF80B485B000AF786039603B6872
:1004E8001B685A0A0F49A1FB0212D2090E4901FBE7
:1004F80002F29B1AFB603B681B685B0A094AA2FB75
:100508000323DB09BB607B681A68BB681A447B68F5
:100518001A603B68FA681A6000BF1437BD465DF878
:10052800047B7047834B040000CA9A3B80B500AF38
:1005380002F0CAF800F00CF800F0BAF800F090F8F1
:1005480000F064F801F0CCF901F0DAF9FCE70000FA
:1005580080B594B000AF07F120033022002118467F
:1005680004F080FE07F10C0300221A605A609A60BA
:10057800DA601A610023BB60224B1B6C214A43F0EE
:10058800805313641F4B1B6C03F08053BB60BB6824
:1005980000237B601C4B1B681B4A43F48043136099
:1005A800194B1B6803F480437B607B6802233B6222
:1005B8000123FB6210233B630023BB6307F1200385
:1005C800184602F0C7FF0346002B01D000F08AF856
:1005D8000F23FB6000233B6100237B610023BB6189
:1005E8000023FB6107F10C030021184603F02AFAE7
:1005F8000346002B01D000F075F800BF5037BD4608
:1006080080BD00BF003802400070004080B500AFD8
:10061800114B124A1A60104B4FF416525A600E4B87
:1006280000229A600C4B0022DA600B4B00221A6100
:10063800094B0C225A61084B00229A61064B002292
:10064800DA61054803F0DEFB0346002B01D000F019
:1006580049F800BF80BD00BFA8000020004400404A
:1006680080B582B000AF00237B60104B1B6B0F4A34
:1006780043F4001313630D4B1B6B03F400137B60EF
:100688007B6800220021102002F08FF9102002F070
:10069800A8F900220021112002F087F9112002F0A8
:1006A800A0F900BF0837BD4680BD00BF0038024032
:1006B80080B483B000AF00237B60094B1B6B084AF2
:1006C80043F001031363064B1B6B03F001037B60CC
:1006D8007B6800BF0C37BD465DF8047B704700BFE0
:1006E8000038024080B400AF72B600BFFEE780B4A5
:1006F80083B000AF78607B6800221A607B680022B4
:100708005A607B6818460C37BD465DF8047B704715
:1007180080B483B000AF7860044A7B681A607B6855
:1007280018460C37BD465DF8047B7047A85700088B
:1007380080B582B000AF78607B681846FFF7E8FFA5
:10074800064A7B681A607B6804331846FFF7CFFFB8
:100758007B6818460837BD4680BD00BF9057000823
:1007680080B485B000AF786039600023FB607B6897
:100778005968FB683A681344CAB21A707B685B68A8
:10078800190AFB6801333A681344CAB21A707B68C5
:100798005B68190CFB6802333A681344CAB21A70D2
:1007A8007B685B68190EFB6803333A681344CAB266
:1007B8001A70FB680433FB607B689968FB683A68C9
:1007C8001344CAB21A707B689B68190AFB68013324
:1007D8003A681344CAB21A707B689B68190CFB68A4
:1007E80002333A681344CAB21A707B689B68190EC0
:1007F800FB6803333A681344CAB21A70FB680433BF
:10080800FB60FB6818461437BD465DF8047B7047EB
:1008180080B485B000AF786039600023FB60FB6866
:100828003A6813441B781A467B685A607B685A6892
:10083800FB68013339680B441B781B021A437B6839
:100848005A607B685A68FB68023339680B441B7826
:100858001B041A437B685A607B685A68FB68033339
:1008680039680B441B781B061A437B685A60FB687F
:100878000433FB60FB683A6813441B781A467B68AC
:100888009A607B689A68FB68013339680B441B7867
:100898001B021A437B689A607B689A68FB6802337C
:1008A80039680B441B781B041A437B689A607B6881
:1008B8009A68FB68033339680B441B781B061A4394
:1008C8007B689A60FB680433FB60FB681846143742
:1008D800BD465DF8047B704780B483B000AF786094
:1008E800034B18460C37BD465DF8047B704700BFC4
:1008F8009855000880B483B000AF7860034B184661
:100908000C37BD465DF8047B704700BFA85500084A
:1009180080B582B000AF78607B681846FFF7F8FEB4
:100928000B4A7B681A607B6800229A807B68094AB8
:100938009A607B68074ADA607B68064A1A617B68B6
:1009480000225A617B6818460837BD4680BD00BF43
:1009580078570008CC55000880B588B000AF78609B
:1009680039600023FB617B689988FB693A68134406
:10097800CAB21A707B689B881B0A99B2FB6901335B
:100988003A681344CAB21A70FB690233FB617B6888
:100998009B681846FFF714FCB861FB693A68134472
:1009A800B969184600F0C6FFFB690433FB61FB69AF
:1009B8003A68D0187B689B68BA69194604F044FC09
:1009C800FA69BB691344FB617B68DB681846FFF76B
:1009D800F7FB7861FB693A6813447969184600F0B7
:1009E800A9FFFB690433FB61FB693A68D0187B688F
:1009F800DB687A69194604F027FCFA697B691344B5
:100A0800FB617B681B691846FFF7DAFB3861FB69F5
:100A18003A6813443969184600F08CFFFB690433BF
:100A2800FB61FB693A68D0187B681B693A6919460B
:100A380004F00AFCFA693B691344FB617B685B6953
:100A4800FB60F968FB693A681344CAB21A70FB681C
:100A5800190AFB6901333A681344CAB21A70FB6871
:100A6800190CFB6902333A681344CAB21A70FB685E
:100A7800190EFB6903333A681344CAB21A70FB694A
:100A88000433FB61FB6918462037BD4680BD80B53D
:100A98008AB000AF786039600023BB61BB693A68EF
:100AA80013441B789AB27B689A807B689B881AB239
:100AB800BB69013339680B441B781B021BB2134313
:100AC8001BB29AB27B689A80BB690233BB61BB696F
:100AD8003A681A4407F114031146184600F048FF13
:100AE800BB690433BB61BB697B62BA697B69134428
:100AF8007A6A9A420CD23A687B6A1A447B6A013B4A
:100B080039680B4412781A707B6A01337B62ECE710
:100B1800BA697B691344013B3A68134400221A708E
:100B2800BB69013B3A681A447B689A60BA697B6979
:100B38001344BB61BB693A681A4407F110031146B4
:100B4800184600F015FFBB690433BB61BB693B6203
:100B5800BA693B6913443A6A9A420CD23A683B6ACA
:100B68001A443B6A013B39680B4412781A703B6A95
:100B780001333B62ECE7BA693B691344013B3A68CD
:100B8800134400221A70BB69013B3A681A447B6817
:100B9800DA60BA693B691344BB61BB693A681A44B5
:100BA80007F10C031146184600F0E2FEBB69043356
:100BB800BB61BB69FB61BA69FB681344FA699A4275
:100BC8000CD23A68FB691A44FB69013B39680B444B
:100BD80012781A70FB690133FB61ECE7BA69FB68AC
:100BE8001344013B3A68134400221A70BB69013B65
:100BF8003A681A447B681A61BA69FB681344BB6196
:100C08000023BB60BB68BA6939680A441278134389
:100C1800BB60BA68BB69013339680B441B781B0297
:100C28001343BB60BA68BB69023339680B441B784D
:100C38001B041343BB60BA68BB69033339680B44B0
:100C48001B781B061343BB60BA687B685A61BB6993
:100C58000433BB61BB6918462837BD4680BD000018
:100C680080B483B000AF7860034B18460C37BD469C
:100C78005DF8047B704700BFD055000880B483B08E
:100C880000AF7860034B18460C37BD465DF8047B0F
:100C9800704700BFEC55000880B582B000AF78609F
:100CA8007B681846FFF734FD064A7B681A607B6844
:100CB80000221A717B68044A9A607B6818460837D4
:100CC800BD4680BD60570008CC55000880B584B08B
:100CD80000AF786039600023FB60FB683A68134412
:100CE8007A6812791A70FB680133FB607B689B682D
:100CF8001846FFF765FAB860FB683A681344B968A4
:100D0800184600F017FEFB680433FB60FB683A687E
:100D1800D0187B689B68BA68194604F095FAFA6897
:100D2800BB681344FB60FB6818461037BD4680BD9E
:100D380080B586B000AF7860396000233B613B69BD
:100D48003A6813441A787B681A713B6901333B612E
:100D58003B693A681A4407F10C031146184600F03B
:100D680007FE3B6904333B613B697B613A69FB6879
:100D780013447A699A420CD23A687B691A447B69AF
:100D8800013B39680B4412781A707B6901337B6127
:100D9800ECE73A69FB681344013B3A6813440022C4
:100DA8001A703B69013B3A681A447B689A603A6951
:100DB800FB6813443B613B6918461837BD4680BD44
:100DC80080B483B000AF7860034B18460C37BD463B
:100DD8005DF8047B704700BF1056000880B483B0EC
:100DE80000AF7860034B18460C37BD465DF8047BAE
:100DF800704700BF2456000880B582B000AF786005
:100E08007B681846FFF784FC114A7B681A607B6888
:100E180000225A607B6800229A607B680022DA60B0
:100E28007B6800221A617B684FF000025A617B6878
:100E380000229A617B680022DA617B6800221A62CC
:100E48007B6800225A627B6818460837BD4680BD19
:100E58004857000880B58AB000AF78603960002331
:100E68007B627B6859687B6A3A681344CAB21A7015
:100E78007B685B68190A7B6A01333A681344CAB213
:100E88001A707B685B68190C7B6A02333A681344F2
:100E9800CAB21A707B685B68190E7B6A03333A68BA
:100EA8001344CAB21A707B6A04337B6200233B6224
:100EB8007B685B683A6A9A422BD27B68DA683B6A3D
:100EC8009B0013441B683B6139697B6A3A68134489
:100ED800CAB21A703B69190A7B6A01333A6813442B
:100EE800CAB21A703B69190C7B6A02333A68134418
:100EF800CAB21A703B69190E7B6A03333A68134405
:100F0800CAB21A707B6A04337B623B6A01333B6264
:100F1800CEE77B6819697B6A3A681344CAB21A70CB
:100F28007B681B69190A7B6A01333A681344CAB2A1
:100F38001A707B681B69190C7B6A02333A68134480
:100F4800CAB21A707B681B69190E7B6A03333A6848
:100F58001344CAB21A707B6A04337B620023FB61B4
:100F68007B681B69FA699A422BD27B689A69FB698C
:100F78009B0013441B68FB60F9687B6A3A6813445A
:100F8800CAB21A70FB68190A7B6A01333A681344BB
:100F9800CAB21A70FB68190C7B6A02333A681344A8
:100FA800CAB21A70FB68190E7B6A03333A68134495
:100FB800CAB21A707B6A04337B62FB690133FB6136
:100FC800CEE77B68D9697B6A3A681344CAB21A705B
:100FD8007B68DB69190A7B6A01333A681344CAB231
:100FE8001A707B68DB69190C7B6A02333A68134410
:100FF800CAB21A707B68DB69190E7B6A03333A68D8
:101008001344CAB21A707B6A04337B620023BB6143
:101018007B68DB69BA699A4228D27B685A6ABB69DD
:101028009B0013441B681846FFF7CAF878617B6A6F
:101038003A6813447969184600F07CFC7B6A0433EB
:101048007B627B6A3A68D0187B685A6ABB699B00E6
:1010580013441B687A69194604F0F6F87A6A7B69C2
:1010680013447B62BB690133BB61D1E77B6A1846D5
:101078002837BD4680BD80B58EB000AF7860396036
:1010880000237B637B6B3A6813441B783B627B6B62
:1010980001333A6813441B781B023A6A13433B62D4
:1010A8007B6B02333A6813441B781B043A6A134378
:1010B8003B627B6B03333A6813441B781B063A6A1E
:1010C80013433B627B6B04337B637B685B683A6AE0
:1010D8009A420AD97B68DA683B6A9B00194610462F
:1010E80004F0C8F802467B68DA607B683A6A5A609E
:1010F80000233B637B685B683A6B9A4236D20023D5
:101108007B617B697A6B39680A44127813437B6187
:101118007A697B6B013339680B441B781B021343D4
:101128007B617A697B6B023339680B441B781B043B
:1011380013437B617A697B6B033339680B441B78F3
:101148001B0613437B617A697B689A607B6B043367
:101158007B637B68DA683B6B9B0013447A680832D0
:1011680012681A603B6B01333B63C3E77B6B3A68D9
:1011780013441B78FB617B6B01333A6813441B787B
:101188001B02FA691343FB617B6B02333A68134411
:101198001B781B04FA691343FB617B6B03333A68C2
:1011A80013441B781B06FA691343FB617B6B0433FA
:1011B8007B637B681B69FA699A420AD97B689A69DA
:1011C800FB699B001946104604F054F802467B68F8
:1011D8009A617B68FA691A610023FB627B681B6964
:1011E800FA6A9A4236D200233B613B697A6B3968C6
:1011F8000A44127813433B613A697B6B01333968BF
:101208000B441B781B0213433B613A697B6B023327
:1012180039680B441B781B0413433B613A697B6BA9
:10122800033339680B441B781B0613433B613A6947
:101238007B685A617B6B04337B637B689A69FB6AC2
:101248009B0013447A68143212681A60FB6A0133EF
:10125800FB62C3E77B6B3A6813441B78BB617B6B0B
:1012680001333A6813441B781B02BA691343BB6104
:101278007B6B02333A6813441B781B04BA69134327
:10128800BB617B6B03333A6813441B781B06BA694E
:101298001343BB617B6B04337B637B68DB69BA698F
:1012A8009A420AD97B685A6ABB699B00194610465C
:1012B80003F0E0FF02467B685A627B68BA69DA612C
:1012C8000023BB627B68DB69BA6A9A423FD27B6BB8
:1012D8003A681A4407F10C031146184600F048FB17
:1012E8007B6B04337B637B6B7B627A6BFB68134499
:1012F8007A6A9A420CD23A687B6A1A447B6A013B42
:1013080039680B4412781A707B6A01337B62ECE708
:101318007A6BFB681344013B3A68134400221A7045
:101328007B6B013B3A681A447B681A627A6BFB68EC
:1013380013447B637B685A6ABB6A9B0013447A68D0
:10134800203212681A60BB6A0133BB62BAE77B6B52
:1013580018463837BD4680BD80B483B000AF78608A
:10136800034B18460C37BD465DF8047B704700BF39
:10137800E456000880B483B000AF7860034B184689
:101388000C37BD465DF8047B704700BF485600081F
:1013980080B485B000AFF860B9607A603B60FB68E4
:1013A800BA681A60FB687A685A60FB683A681A611A
:1013B800FB6818461437BD465DF8047B704780B556
:1013C80082B000AF786039607B68D8687B68DB687A
:1013D8001B681B687A6891683A68984703461846FC
:1013E8000837BD4680BD80B483B000AF78607B68A5
:1013F8001B6918460C37BD465DF8047B704780B4FE
:1014080083B000AF78607B681B689B6B1B685B6868
:10141800C3F50073C3F3080318460C37BD465DF8DF
:10142800047B704780B483B000AF78607B680A4A59
:101438001A607B680022C3F804227B680022C3F884
:1014480008247B680022C3F80C247B6818460C37F4
:10145800BD465DF8047B7047A800002080B582B0C7
:1014680000AF7860786800F004F800BF0837BD4620
:1014780080BD80B582B000AF78607B6818687B68F3
:1014880004334FF40072194602F088FD00BF083794
:10149800BD4680BD90B585B000AF78604FF0FF3392
:1014A800FB607B68D3F804427868FFF7A8FF03461F
:1014B8009C4214BF01230023DBB2002B12D07B68AF
:1014C800D3F80432591C7A68C2F804127A681344B3
:1014D8001B79FB607B68D3F80432C3F308027B688E
:1014E800C3F80422FB6818461437BD4690BD0000B7
:1014F80080B584B000AF78607B681B6893F83D3096
:10150800DBB2202B08D1284B1B7883F00103DBB218
:10151800002B01D0012300E00023002B3FD0224BF9
:1015280001221A707B68D3F808247B68D3F80C343E
:101538009A4231D07B68D3F80C247B68D3F80834FE
:101548009A420AD27B68D3F808349AB27B68D3F8F7
:101558000C349BB2D31A9BB206E07B68D3F80C34E8
:101568009BB2C3F500739BB2FB817B6818687B68EC
:10157800D3F80C3403F502737A681344FA891946D0
:1015880002F08EFC7B68D3F80C24FB891344C3F368
:1015980008027B68C3F80C24034B00221A7000BFB2
:1015A8001037BD4680BD00BFAC01002080B586B0B5
:1015B80000AFF860B9607A607B687B617B69B3F5DE
:1015C800007FA8BF4FF400737B61FB68D3F8083431
:1015D800C3F500727B69934228BF13463B61FB68E1
:1015E800D3F8083403F50273FA6813443A69B96802
:1015F800184603F029FEFB68D3F808247B691344D6
:10160800C3F30802FB68C3F808247A693B699A4265
:101618000BD0FB6803F502703B69BA68D1187A6988
:101628003B69D31A1A4603F00FFEF868FFF760FF0C
:1016380000BF1837BD4680BD80B582B000AF786066
:1016480001F0A8F8034618460837BD4680BD0000DB
:1016580080B582B000AF78607B681846FFF758F80D
:10166800054A7B681A607B68044A5A607B6818469A
:101678000837BD4680BD00BF1C570008CC55000880
:1016880080B584B000AF786039600023FB607B6868
:101698005B681846FEF794FDB860FB683A68134427
:1016A800B968184600F046F9FB680433FB60FB682C
:1016B8003A68D0187B685B68BA68194603F0C4FDBD
:1016C800FA68BB681344FB60FB6818461037BD46D0
:1016D80080BD80B586B000AF7860396000233B617B
:1016E8003B693A681A4407F10C031146184600F0A2
:1016F8003FF93B6904333B613B697B613A69FB68AD
:1017080013447A699A420CD23A687B691A447B6915
:10171800013B39680B4412781A707B6901337B618D
:10172800ECE73A69FB681344013B3A68134400222A
:101738001A703B69013B3A681A447B685A603A69F7
:10174800FB6813443B613B6918461837BD4680BDAA
:1017580080B483B000AF7860034B18460C37BD46A1
:101768005DF8047B704700BF6C56000880B483B0F6
:1017780000AF7860034B18460C37BD465DF8047B14
:10178800704700BF7C56000880B483B000AF786013
:10179800044A7B681A607B6818460C37BD465DF8BA
:1017A800047B70473457000880B582B000AF78607A
:1017B8007B681846FFF7E8FF364A7B681A607B6843
:1017C80004331846FFF72EFE7B680022C3F8142462
:1017D8007B680022C3F818247B680022C3F81C2405
:1017E8007B680022C3F820247B6803F224434FF46B
:1017F80000720021184603F035FD7B6803F224636C
:101808004FF400720021184603F02CFD7B6803F6A4
:10181800240364220021184603F024FD7B6803F6A4
:10182800880364220021184603F01CFD7B6800220F
:10183800C3F8EC287B680022C3F8F0287B680022F4
:10184800C3F8F4287B680022C3F8F8287B680022D4
:10185800C3F8FC287B68002283F800297B680022F3
:10186800C3F804297B680022C3F808297B68002292
:10187800C3F80C297B68002283F810297B6803F6DB
:1018880014131846FFF7B8FA7B6818460837BD46A0
:1018980080BD00BF0857000880B582B000AF7860EF
:1018A800054800F08AF803461846FFF721FE00BFF6
:1018B8000837BD4680BD00BFB001002080B582B0AA
:1018C80000AF7860054800F078F803461846FFF73F
:1018D800D0FD00BF0837BD4680BD00BFB001002065
:1018E80080B500AF044800F074F80449024800F0DD
:1018F8008DF800BF80BD00BFB0010020F40A0020B1
:1019080080B500AF074B084A5A6006490748FFF7F9
:1019180056FD074800F0AAF84FF47A7000F046FF29
:1019280000BF80BDEC0A002000000020F40A00205F
:10193800B001002080B485B000AF78603960002322
:10194800FB60FB68032B0DD8FB68DB003A6822FAC2
:1019580003F17A68FB681344CAB21A70FB68013352
:10196800FB60EEE700BF1437BD465DF8047B7047A7
:1019780080B485B000AF786039607B6800221A6057
:101988000023FB60FB68032B11D87B681B68396850
:10199800FA680A4412781146FA68D20001FA02F28B
:1019A8001A437B681A60FB680133FB60EAE700BFF3
:1019B8001437BD465DF8047B704780B483B000AF30
:1019C80078607B68043318460C37BD465DF8047BA5
:1019D800704780B582B000AF78607B6804331846E2
:1019E800FFF73CFD7B680022C3F8EC287B680022E7
:1019F800C3F8F0287B680022C3F8F8287B68002227
:101A0800C3F8F42800BF0837BD4680BD80B485B050
:101A180000AF786039600023FB60FB68182B1EDC80
:101A28007A68FB6803F502739B0013445B68002B1C
:101A380011D17A68FB6803F502739B0013443A6876
:101A48005A60FB6803F17D023B689A607A683B68DC
:101A5800DA60012304E0FB680133FB60DDE7002363
:101A680018461437BD465DF8047B704780B586B0CC
:101A780000AF78607B6804331846FFF7DDFD3861F6
:101A88007B68D3F808393A69D31A42F6F8229342A8
:101A980003D97B68002283F800297B68D3F8EC38E7
:101AA800002B09D07B68D3F80C393A699A4203D9DC
:101AB8007B680022C3F8EC280023FB750023BB7564
:101AC8007B68D3F82034002B14D07B680433184685
:101AD800FFF7B2FD02463B69D21A7B68D3F820347F
:101AE8009A428CBF01230023DBB2002B02D06FF097
:101AF8000103A5E17B6804331846FFF7CBFCF860C7
:101B0800FB68002BC0F278817B68D3F8FC28FB685F
:101B18001A447B68C3F8FC287B68D3F8EC38072B99
:101B28001ED17B68D3F8F838591C7A68C2F8F818BF
:101B3800FA68D1B27A6813440A4683F824247B6889
:101B4800D3F8F0385A1E7B68C3F8F0287B68D3F8BE
:101B5800F038002BB4D17B680822C3F8EC28AFE733
:101B68007B68D3F8EC38002B28D1FB68FF2B0DD10C
:101B78007B68D3F8EC385A1C7B68C3F8EC283B69BF
:101B880003F114027B68C3F80C2999E77B680433D6
:101B98001846FFF751FD02463B69D31A41F28832D5
:101BA80093428CBF01230023DBB2002B88D07B68D3
:101BB800002283F800296FF0010341E17B68D3F824
:101BC800EC38012B18D1FB68FE2B07D17B68D3F8C2
:101BD800EC385A1C7B68C3F8EC2871E77B68002254
:101BE800C3F8EC287B6893F80039002B7FF468AFC2
:101BF800786800F029F963E77B68D3F8EC38022BA2
:101C080013D17B68FA68C3F8F0287B680022C3F810
:101C1800F8287B68D3F8EC385A1C7B68C3F8EC28A2
:101C28007B68FA68C3F8FC284AE77B68D3F8EC3885
:101C3800032B10D17B68D3F8F028FB681B021A44E9
:101C48007B68C3F8F0287B68D3F8EC385A1C7B68AB
:101C5800C3F8EC2834E77B68D3F8EC38042B16D1AA
:101C68007B68D3F8FC385A42DBB2D2B258BF534231
:101C7800FF2B07D17B68D3F8EC385A1C7B68C3F874
:101C8800EC281DE77B680022C3F8EC2818E77B687E
:101C9800D3F8EC38052B0FD17B68FA68C3F8F42821
:101CA8007B68D3F8EC385A1C7B68C3F8EC287B684F
:101CB800FA68C3F8FC2803E77B68D3F8EC38062BEE
:101CC80017D17B68D3F8F428FB681B021A447B6899
:101CD800C3F8F4287B680722C3F8EC287B68D3F89C
:101CE800F038002B7FF4ECAE7B680822C3F8EC28B0
:101CF800E6E67B68D3F8EC38082B7FF4E1AE7B6826
:101D08000022C3F8EC287B68D3F8FC385A42DBB2CF
:101D1800D2B258BF5342FF2B7FF4D2AE7B68D3F8C0
:101D2800F438002B10D1786800F08EF8786800F04D
:101D3800A9F87B683A69C3F804297B683A69C3F84B
:101D480008294FF0FF337BE07B68D3F8F4380A2B7F
:101D580009D10123BB757B6803F2244319467868CF
:101D680000F070F9ACE67B68D3F8F438062B0ED196
:101D78007B6803F614127B6803F224431946104665
:101D8800FFF779F97B68012283F8102998E67B68C8
:101D9800D3F8F4380B2B06D17B68002283F800298E
:101DA8000123FB758CE67B68D3F8F438A3F1640251
:101DB8007B6802F2222253F82230002B3FF480AED7
:101DC8007B68D3F8F438A3F164027B6802F222221C
:101DD80053F822007B68D3F8F438A3F164027B68D7
:101DE80002F2222253F822301B681B687A6802F23A
:101DF80024421146984763E600BF7B6893F8003990
:101E0800002B0FD07B68D3F804393A69D31A40F60F
:101E1800C412934206D9786800F016F87B683A69CC
:101E2800C3F80429BB7D002B02D06FF0030306E042
:101E3800FB7D002B02D06FF0020300E0002300BFFF
:101E480018461837BD4680BD80B586B000AF7860AB
:101E580007F10C031846FEF76BFC7B681B681B68D0
:101E680007F10C020A21786898477B680433184602
:101E7800FFF7E2FB02467B68C3F8142400BF18375B
:101E8800BD4680BD90B58BB000AF786007F10C03FC
:101E98001846FEF73DFD00237B627B6A182B63DC46
:101EA8007A687B6A03F502739B0013445B68002B16
:101EB80056D07A687B6A03F502739B0013445B680B
:101EC8009B689BB23B827A687B6A03F502739B002E
:101ED80013445B681B687B617A687B6A03F502734D
:101EE8009B0013445B6859687A687B6A03F5027340
:101EF8009B0013445B685B681B6808331B680846D3
:101F080098470346BB617A687B6A03F502739B00B6
:101F180013445B6859687A687B6A03F502739B000F
:101F280013445B685B681B680C331B68084698475A
:101F38000346FB614FF400733B627B681B681C68B7
:101F48007A687B6A03F502739B0013445B68184642
:101F5800FFF749FA014607F10C031A467868A047CB
:101F68007B6A01337B6298E700237B627B6A182BCC
:101F78005FDC7B687A6A02F2222253F82230002B57
:101F880053D07B687A6A02F2222253F822305B68C7
:101F98009BB23B827B687A6A02F2222253F8223093
:101FA8009B687B617B687A6A02F2222253F82210CE
:101FB8007B687A6A02F2222253F822301B680833BF
:101FC8001B68084698470346BB617B687A6A02F239
:101FD800222253F822107B687A6A02F2222253F8EE
:101FE80022301B680C331B68084698470346FB6180
:101FF8004FF400733B627B681B681C687B687A6AD5
:1020080002F2222253F822107B687A6A02F2222214
:1020180053F822301B6804331B680846984701466A
:1020280007F10C031A467868A0477B6A01337B6284
:102038009CE77B68012283F8002900BF2C37BD4646
:1020480090BD000080B586B000AF7860396007F1B8
:1020580008031846FEF76CFB7B6804331846FFF745
:10206800EBFA02467B68D3F81434D31A7B6107F184
:10207800080339681846FEF7CBFBFA687B691549EF
:10208800A1FB03139B091344FB6039697A69114B5F
:10209800A3FB02039B094FF47A7000FB03F3D31AE6
:1020A8000D4A02FB03F30B443B6107F108030433B9
:1020B8001946786800F0A6F87B6804331846FFF7DD
:1020C800BBFA02467B68C3F8082900BF1837BD462B
:1020D80080BD00BFD34D621040420F0080B588B06C
:1020E80000AFF860B9607A60BB68632B09DDFB68F4
:1020F80093F8003983F00103DBB2002B01D00023F1
:1021080079E07B681B681B68FA6802F22462073270
:102118001146786898477861FB68FF2283F824267F
:10212800FB68FE2283F825267B69DAB2FB6883F810
:1021380026267B699BB21B0A9BB2DAB2FB6883F83E
:102148002726FB6893F82626FB6893F8273613445E
:10215800DBB2DB43DAB2FB6883F82826BB68DAB265
:10216800FB6883F82926BB681BB21B121BB2DAB2C4
:10217800FB6883F82A260023FB610523BB617B6982
:102188000633BA699A420DDCFA68BB69134403F254
:1021980024631B781A46FB691344FB61BB6901334E
:1021A800BB61ECE77B6907337B61FB695A42DBB2B1
:1021B800D2B258BF5342DAB27B69591C7961D24313
:1021C800D1B2FA6813440A4683F824267B69B3F52A
:1021D800007F0ADCFB68181DFB6803F224637A6938
:1021E8001946FFF7E3F97B6905E00549F86800F04F
:1021F80049F84FF0FF3318462037BD4680BD00BF71
:10220800A056000880B584B000AF786039607B685C
:1022180004331846FFF710FAF8603B681A68FB6841
:102228001549A1FB03139B09D31A5A1E7B68C3F8EF
:1022380018243B685968FA680F4BA3FB02039B09F3
:102248004FF47A7000FB03F3D31A0C4A02FB03F332
:10225800CA1A0B4B13447A68C2F81C347B6803F51E
:1022680083627B6803F21C4319461046FEF732F975
:1022780000BF1037BD4680BDD34D621040420F00ED
:1022880000CA9A3B80B582B000AF786039603A687E
:102298000321786800F004F800BF0837BD4680BD08
:1022A80080B588B000AFF8600B467A60FB7207F122
:1022B80014031846FEF7F0FCFB7A3B767B68FB615B
:1022C800FB681B681B6807F114020721F868984728
:1022D80000BF2037BD4680BD80B582B000AF7860B2
:1022E80039607B68012B10D13B684FF6FF7293422F
:1022F8000BD10848FFF758FA0748FFF7A9F9002358
:10230800054A06490648FFF743F800BF0837BD46A7
:1023180080BD00BFB0010020EC0A0020DC56000898
:10232800F40A002080B483B000AF78607B6893F82B
:10233800003918460C37BD465DF8047B704780B5F8
:1023480000AF4FF6FF710120FFF7C6FF80BD000008
:1023580080B483B000AF00237B60104B5B6C0F4AE6
:1023680043F4804353640D4B5B6C03F480437B6000
:102378007B6800233B60094B1B6C084A43F0805381
:102388001364064B1B6C03F080533B603B6800BF33
:102398000C37BD465DF8047B704700BF003802402B
:1023A80080B58AB000AF786007F1140300221A6084
:1023B8005A609A60DA601A617B681B684D4A9342DA
:1023C80040F0938000233B614B4B1B6C4A4A43F41B
:1023D80000331364484B1B6C03F400333B613B69C7
:1023E8000023FB60444B1B6B434A43F00103136318
:1023F800414B1B6B03F00103FB60FB680C237B6103
:102408000223BB610023FB6103233B6207237B623A
:1024180007F114031946394800F000FF384B394AD0
:102428001A60374B4FF000625A60354B00229A60B1
:10243800334B0022DA60324B4FF480621A61304B22
:1024480000225A612E4B00229A612D4B4FF4807264
:10245800DA612B4B4FF400321A62294B00225A6280
:10246800274800F0D9FA0346002B01D0FEF73AF9C5
:102478007B68234A9A63224A7B689363224B234AE8
:102488001A60214B4FF000625A601F4B40229A603D
:102498001D4B0022DA601C4B4FF480621A611A4B04
:1024A80000225A61184B00229A61174B0022DA6108
:1024B800154B4FF400321A62134B00225A6212482D
:1024C80000F0AAFA0346002B01D0FEF70BF97B684F
:1024D8000D4A5A630C4A7B68936300220021262028
:1024E80000F063FA262000F07CFA00BF2837BD46CA
:1024F80080BD00BF00440040003802400000024098
:10250800EC000020886002404C010020A0600240DE
:1025180080B400AFFEE780B400AFFEE780B400AF40
:10252800FEE780B400AFFEE780B400AFFEE780B4FA
:1025380000AF00BFBD465DF8047B704780B400AFB4
:1025480000BFBD465DF8047B704780B400AF00BF94
:10255800BD465DF8047B704780B500AF00F006F912
:1025680000BF80BD80B500AF024800F0EDFB00BFA2
:1025780080BD00BFEC00002080B500AF024800F02D
:10258800E3FB00BF80BD00BF4C01002080B500AF59
:10259800024801F033FD00BF80BD00BFA800002045
:1025A80080B400AF01231846BD465DF8047B704730
:1025B80080B582B000AF7860396002F01BFE034638
:1025C80016221A604FF0FF3318460837BD4680BD03
:1025D80080B582B000AF78604FF0FF317868FFF7C0
:1025E800E7FFFEE780B586B000AF7860144A154B68
:1025F800D31A7B617B693B61134B1B68002B02D1AB
:10260800114B124A1A60104B1A687B6813443A69D6
:102618009A4207D202F0EEFD03460C221A604FF0F0
:10262800FF3309E0084B1B68FB60074B1A687B689F
:102638001344054A1360FB6818461837BD4680BD29
:102648000000022000040000080B0020200B0020DE
:1026580080B400AF064BD3F88830054A43F47003C2
:10266800C2F8883000BFBD465DF8047B704700BFE4
:1026780000ED00E0DFF834D00D480E490E4A002383
:1026880002E0D458C4500433C4188C42F9D30B4A1E
:102698000B4C002301E013600432A242FBD3FFF786
:1026A800D7FF02F0ADFDFDF741FF704700000220A3
:1026B800000000208C000020EC5700088C0000204F
:1026C800200B0020FEE7000080B500AF0E4B1B6812
:1026D8000D4A43F4007313600B4B1B680A4A43F41A
:1026E80080631360084B1B68074A43F480731360C8
:1026F800032000F04FF90F2000F008F8FFF728FE3C
:102708000023184680BD00BF003C024080B582B05F
:1027180000AF7860124B1A68124B1B7819464FF4B9
:102728007A73B3FBF1F3B2FBF3F3184600F067F9E1
:102738000346002B01D001230EE07B680F2B0AD83B
:10274800002279684FF0FF3000F02FF9064A7B68C5
:102758001360002300E0012318460837BD4680BDFA
:1027680018000020200000201C00002080B400AFCA
:10277800064B1B781A46064B1B681344044A136021
:1027880000BFBD465DF8047B704700BF20000020F5
:102798000C0B002080B400AF034B1B681846BD46E5
:1027A8005DF8047B704700BF0C0B002080B584B037
:1027B80000AF7860FFF7EEFFB8607B68FB60FB68EE
:1027C800B3F1FF3F05D00A4B1B781A46FB68134448
:1027D800FB6000BFFFF7DEFF0246BB68D31AFA684A
:1027E8009A42F7D800BF00BF1037BD4680BD00BF72
:1027F8002000002080B485B000AF78607B6803F0CB
:102808000703FB600C4BDB68BB60BA684FF6FF033D
:102818001340BB60FB681A02BB68134343F0BF63F5
:1028280043F40033BB60044ABB68D36000BF14376D
:10283800BD465DF8047B704700ED00E080B400AF52
:10284800044BDB681B0A03F007031846BD465DF816
:10285800047B704700ED00E080B483B000AF03460E
:10286800FB7197F90730002B0BDBFB7903F01F0294
:10287800074997F907305B09012000FA02F241F88D
:10288800232000BF0C37BD465DF8047B704700BFAE
:1028980000E100E080B483B000AF03463960FB710B
:1028A80097F90730002B0ADB3B68DAB20C4997F935
:1028B80007301201D2B20B4483F800230AE03B68C8
:1028C800DAB20849FB7903F00F03043B1201D2B2D4
:1028D8000B441A7600BF0C37BD465DF8047B704781
:1028E80000E100E000ED00E080B489B000AFF860DE
:1028F800B9607A60FB6803F00703FB61FB69C3F109
:102908000703042B28BF0423BB61FB690433062B90
:1029180002D9FB69033B00E000237B614FF0FF32E3
:10292800BB6902FA03F3DA43BB681A407B699A4031
:102938004FF0FF317B6901FA03F3D9437B680B4001
:10294800134318462437BD465DF8047B70470000E2
:1029580080B582B000AF78607B68013BB3F1807FBF
:1029680001D301230FE00A4A7B68013B53600F2122
:102978004FF0FF30FFF78EFF054B00229A60044BA3
:1029880007221A60002318460837BD4680BD00BFDD
:1029980010E000E080B582B000AF78607868FFF79B
:1029A80029FF00BF0837BD4680BD80B586B000AF9F
:1029B8000346B9607A60FB7300237B61FFF73EFF33
:1029C80078617A68B9687869FFF78EFF024697F9E7
:1029D8000F3011461846FFF75DFF00BF1837BD4698
:1029E80080BD80B582B000AF0346FB7197F9073010
:1029F8001846FFF731FF00BF0837BD4680BD80B5D8
:102A080082B000AF78607868FFF7A2FF03461846E7
:102A18000837BD4680BD000080B586B000AF78603D
:102A280000237B61FFF7B6FE38617B68002B01D17C
:102A3800012399E07B68022283F835207B68002215
:102A480083F834207B681B681A687B681B6822F04F
:102A580001021A600FE0FFF79DFE02463B69D31A98
:102A6800052B08D97B6820225A657B68032283F8E6
:102A78003520032378E07B681B681B6803F001039B
:102A8800002BE8D17B681B681B687B617A69384B2F
:102A980013407B617B685A687B689B681A437B6834
:102AA800DB681A437B681B691A437B685B691A43B6
:102AB8007B689B691A437B68DB691A437B681B6ADE
:102AC80013437A6913437B617B685B6A042B07D1E4
:102AD8007B68DA6A7B681B6B13437A6913437B61F3
:102AE8007B681B687A691A607B681B685B697B6115
:102AF8007B6923F007037B617B685B6A7A69134310
:102B08007B617B685B6A042B17D17B689B6A7A6957
:102B180013437B617B68DB6A002B0ED0786800F07A
:102B280001FB0346002B08D07B6840225A657B686E
:102B3800012283F83520012316E07B681B687A6937
:102B48005A61786800F0B8FA0346FB607B68DB6D71
:102B58003F229A40FB689A607B6800225A657B682E
:102B6800012283F83520002318461837BD4680BD5A
:102B78003F8010F080B586B000AFF860B9607A6029
:102B88003B600023FB75FB689B6D3B61FB6893F81A
:102B98003430012B01D1022340E0FB68012283F885
:102BA8003420FB6893F83530DBB2012B2FD1FB685A
:102BB800022283F83520FB6800225A653B687A6850
:102BC800B968F86800F04AFAFB68DB6D3F229A4062
:102BD8003B699A60FB681B681A68FB681B6842F0CF
:102BE80016021A60FB681B6C002B07D0FB681B6879
:102BF8001A68FB681B6842F008021A60FB681B68C9
:102C08001A68FB681B6842F001021A6005E0FB685D
:102C1800002283F834200223FB75FB7D1846183701
:102C2800BD4680BD80B584B000AF78607B689B6D81
:102C3800FB60FFF7AFFDB8607B6893F83530DBB217
:102C4800022B08D07B6880225A657B68002283F8B3
:102C58003420012352E07B681B681A687B681B6874
:102C680022F016021A607B681B685A697B681B6829
:102C780022F080025A617B681B6C002B03D17B68B1
:102C88009B6C002B07D07B681B681A687B681B68E5
:102C980022F008021A607B681B681A687B681B6848
:102CA80022F001021A6013E0FFF774FD0246BB68C8
:102CB800D31A052B0CD97B6820225A657B6803221E
:102CC80083F835207B68002283F83420032315E03D
:102CD8007B681B681B6803F00103002BE4D17B6849
:102CE800DB6D3F229A40FB689A607B68012283F87B
:102CF80035207B68002283F83420002318461037DB
:102D0800BD4680BD80B483B000AF78607B6893F81F
:102D18003530DBB2022B04D07B6880225A65012350
:102D28000CE07B68052283F835207B681B681A68ED
:102D38007B681B6822F001021A60002318460C37D2
:102D4800BD465DF8047B704780B586B000AF7860FB
:102D58000023BB608E4B1B688E4AA2FB03239B0A91
:102D68007B617B689B6D3B613B691B68FB607B6893
:102D7800DB6D08229A40FB681340002B1AD07B6851
:102D88001B681B6803F00403002B13D07B681B68C7
:102D98001A687B681B6822F004021A607B68DB6D86
:102DA80008229A403B699A607B685B6D43F0010298
:102DB8007B685A657B68DB6D01229A40FB6813408B
:102DC800002B12D07B681B685B6903F08003002B23
:102DD8000BD07B68DB6D01229A403B699A607B6867
:102DE8005B6D43F002027B685A657B68DB6D0422E9
:102DF8009A40FB681340002B12D07B681B681B6845
:102E080003F00203002B0BD07B68DB6D04229A4091
:102E18003B699A607B685B6D43F004027B685A6586
:102E28007B68DB6D10229A40FB681340002B43D06F
:102E38007B681B681B6803F00803002B3CD07B6889
:102E4800DB6D10229A403B699A607B681B681B689F
:102E580003F48023002B18D07B681B681B6803F4DD
:102E68000023002B08D17B681B6C002B24D07B68C7
:102E78001B6C786898471FE07B689B6C002B1BD005
:102E88007B689B6C7868984716E07B681B681B68B2
:102E980003F48073002B07D17B681B681A687B6872
:102EA8001B6822F008021A607B681B6C002B03D099
:102EB8007B681B6C786898477B68DB6D20229A409A
:102EC800FB681340002B00F08F807B681B681B6831
:102ED80003F01003002B00F087807B68DB6D202255
:102EE8009A403B699A607B6893F83530DBB2052BD2
:102EF80036D17B681B681A687B681B6822F016024B
:102F08001A607B681B685A697B681B6822F080021C
:102F18005A617B681B6C002B03D17B689B6C002B70
:102F280007D07B681B681A687B681B6822F0080258
:102F38001A607B68DB6D3F229A403B699A607B6828
:102F4800012283F835207B68002283F834207B68CF
:102F58001B6D002B7ED07B681B6D7868984779E0E5
:102F68007B681B681B6803F48023002B1DD07B68DB
:102F78001B681B6803F40023002B0DD17B685B6C76
:102F8800002B31D07B685B6C786898472CE000BFD9
:102F980018000020B5814E1B7B68DB6B002B23D00B
:102FA8007B68DB6B786898471EE07B681B681B684A
:102FB80003F48073002B0FD17B681B681A687B6849
:102FC8001B6822F010021A607B68012283F8352002
:102FD8007B68002283F834207B68DB6B002B03D0EE
:102FE8007B68DB6B786898477B685B6D002B32D019
:102FF8007B685B6D03F00103002B22D07B68052200
:1030080083F835207B681B681A687B681B6822F088
:1030180001021A60BB680133BB607A699A4207D320
:103028007B681B681B6803F00103002BF2D100E0EA
:1030380000BF7B68012283F835207B68002283F873
:1030480034207B68DB6C002B05D07B68DB6C7868F0
:10305800984700E000BF1837BD4680BD80B485B0F2
:1030680000AFF860B9607A603B60FB681B681A685B
:10307800FB681B6822F480221A60FB681B683A68A8
:103088005A60FB689B68402B08D1FB681B687A680C
:103098009A60FB681B68BA68DA6007E0FB681B681F
:1030A800BA689A60FB681B687A68DA6000BF1437F0
:1030B800BD465DF8047B704780B485B000AF78608A
:1030C8007B681B68DBB2103B144AA2FB03231B0975
:1030D800FB60134AFB6813441B781A467B68DA6561
:1030E800FB68032B09D97B681B6823F47F7323F0E3
:1030F80003031A1D7B689A6507E07B681B6823F445
:103108007F7323F003037A6893657B689B6D184689
:103118001437BD465DF8047B704700BFABAAAAAA66
:10312800D057000880B485B000AF78600023FB73E7
:103138007B689B6ABB607B689B69002B1FD1BB685F
:10314800032B56D801A252F823F000BF65310008BE
:103158007731000865310008FB3100087B68DB6ABD
:1031680003F08073002B46D00123FB7343E07B6898
:10317800DB6AB3F1C07F40D10123FB733DE07B687C
:103188009B69B3F5005F21D1BB68032B37D801A237
:1031980052F823F0AD310008B3310008AD31000812
:1031A800C53100080123FB7330E07B68DB6A03F05C
:1031B8008073002B25D00123FB7322E07B68DB6A38
:1031C800B3F1C07F1FD10123FB731CE0BB68022B46
:1031D80003D9BB68032B03D018E00123FB7315E068
:1031E8007B68DB6A03F08073002B0ED00123FB732E
:1031F8000BE000BF0AE000BF08E000BF06E000BF28
:1032080004E000BF02E000BF00E000BFFB7B1846FF
:103218001437BD465DF8047B704700BF80B489B0A1
:1032280000AF7860396000237B6100233B61002395
:10323800BB610023FB616BE10122FB6902FA03F326
:103248007B613B681B687A6913403B613A697B691B
:103258009A4240F05A813B685B6803F00303012BF4
:1032680005D03B685B6803F00303022B30D17B6811
:103278009B68BB61FB695B00032202FA03F3DB4333
:10328800BA691340BB613B68DA68FB695B0002FA04
:1032980003F3BA691343BB617B68BA699A607B68B8
:1032A8005B68BB610122FB6902FA03F3DB43BA697D
:1032B8001340BB613B685B681B0903F00102FB69B3
:1032C80002FA03F3BA691343BB617B68BA695A60AF
:1032D8003B685B6803F00303032B17D07B68DB684C
:1032E800BB61FB695B00032202FA03F3DB43BA69A3
:1032F8001340BB613B689A68FB695B0002FA03F301
:10330800BA691343BB617B68BA69DA603B685B687A
:1033180003F00303022B23D1FB69DA087B68083228
:1033280053F82230BB61FB6903F007039B000F22AF
:1033380002FA03F3DB43BA691340BB613B681A69BD
:10334800FB6903F007039B0002FA03F3BA6913430E
:10335800BB61FB69DA087B680832B96943F8221057
:103368007B681B68BB61FB695B00032202FA03F3FD
:10337800DB43BA691340BB613B685B6803F0030237
:10338800FB695B0002FA03F3BA691343BB617B680C
:10339800BA691A603B685B6803F44033002B00F09D
:1033A800B4800023FB60604B5B6C5F4A43F480434E
:1033B80053645D4B5B6C03F48043FB60FB685B4AC2
:1033C800FB699B08023352F82330BB61FB6903F0A9
:1033D80003039B000F2202FA03F3DB43BA6913408D
:1033E800BB617B68524A93422BD07B68514A934217
:1033F80025D07B68504A93421FD07B684F4A93423E
:1034080019D07B684E4A934213D07B684D4A934249
:103418000DD07B684C4A934207D07B684B4A934255
:1034280001D107230EE008230CE006230AE0052358
:1034380008E0042306E0032304E0022302E001235A
:1034480000E00023FA6902F0030292009340BA698F
:103458001343BB613549FB699B080233BA6941F8DC
:1034680023203B4B9B68BB613B69DB43BA69134034
:10347800BB613B685B6803F48013002B03D0BA6917
:103488003B691343BB61324ABB699360304BDB68CD
:10349800BB613B69DB43BA691340BB613B685B684E
:1034A80003F40013002B03D0BA693B691343BB61D3
:1034B800274ABB69D360264B5B68BB613B69DB432A
:1034C800BA691340BB613B685B6803F40033002BA7
:1034D80003D0BA693B691343BB611D4ABB6953609A
:1034E8001B4B1B68BB613B69DB43BA691340BB617B
:1034F8003B685B6803F48033002B03D0BA693B69EF
:103508001343BB61124ABB691360FB690133FB615A
:10351800FB690F2B7FF690AE00BF00BF2437BD4676
:103528005DF8047B704700BF003802400038014056
:10353800000002400004024000080240000C024063
:10354800001002400014024000180240001C024013
:10355800003C014080B586B000AF78607B68002BE6
:1035680001D1012367E27B681B6803F00103002B8C
:1035780075D0884B9B6803F00C03042B0CD0854B4B
:103588009B6803F00C03082B12D1824B5B6803F491
:103598008003B3F5800F0BD17E4B1B6803F4003317
:1035A800002B5BD07B685B68002B57D1012342E27C
:1035B8007B685B68B3F5803F06D1764B1B68754A1C
:1035C80043F4803313601DE07B685B68B3F5A02F7C
:1035D8000CD1704B1B686F4A43F4802313606D4B0A
:1035E8001B686C4A43F4803313600BE0694B1B681B
:1035F800684A23F480331360664B1B68654A23F4DA
:10360800802313607B685B68002B13D0FFF7C2F838
:10361800386108E0FFF7BEF802463B69D31A642B0D
:1036280001D9032307E25B4B1B6803F40033002B2B
:10363800F0D014E0FFF7AEF8386108E0FFF7AAF819
:1036480002463B69D31A642B01D90323F3E1514B9A
:103658001B6803F40033002BF0D100E000BF7B6847
:103668001B6803F00203002B63D04A4B9B6803F0EE
:103678000C03002B0BD0474B9B6803F00C03082B63
:103688001CD1444B5B6803F48003002B16D1414BDB
:103698001B6803F00203002B05D07B68DB68012B55
:1036A80001D00123C7E13B4B1B6823F0F8027B687C
:1036B8001B69DB00374913430B603AE07B68DB6822
:1036C800002B20D0344B01221A60FFF763F83861D1
:1036D80008E0FFF75FF802463B69D31A022B01D9CD
:1036E8000323A8E12B4B1B6803F00203002BF0D047
:1036F800284B1B6823F0F8027B681B69DB0025490F
:1037080013430B6015E0244B00221A60FFF742F8C0
:10371800386108E0FFF73EF802463B69D31A022BEE
:1037280001D9032387E11B4B1B6803F00203002B1D
:10373800F0D17B681B6803F00803002B36D07B6848
:103748005B69002B16D0154B01221A60FFF722F88F
:10375800386108E0FFF71EF802463B69D31A022BCE
:1037680001D9032367E10B4B5B6F03F00203002BC6
:10377800F0D01BE0094B00221A60FFF70BF8386104
:103788000EE0FFF707F802463B69D31A022B07D968
:10379800032350E10038024000004742800E4742B0
:1037A800884B5B6F03F00203002BEAD17B681B6830
:1037B80003F00403002B00F097800023FB75814B76
:1037C8001B6C03F08053002B0FD10023BB607D4B93
:1037D8001B6C7C4A43F0805313647A4B1B6C03F0D8
:1037E8008053BB60BB680123FB75774B1B6803F4F0
:1037F8008073002B18D1744B1B68734A43F4807391
:103808001360FEF7C7FF386108E0FEF7C3FF024602
:103818003B69D31A022B01D903230CE16A4B1B68BD
:1038280003F48073002BF0D07B689B68012B06D1D2
:10383800644B1B6F634A43F0010313671CE07B680A
:103848009B68052B0CD15F4B1B6F5E4A43F004034A
:1038580013675C4B1B6F5B4A43F0010313670BE074
:10386800584B1B6F574A23F001031367554B1B6FC7
:10387800544A23F0040313677B689B68002B15D018
:10388800FEF788FF38610AE0FEF784FF02463B69CD
:10389800D31A41F28832934201D90323CBE0494B32
:1038A8001B6F03F00203002BEED014E0FEF772FF4B
:1038B80038610AE0FEF76EFF02463B69D31A41F20F
:1038C8008832934201D90323B5E03E4B1B6F03F0C6
:1038D8000203002BEED1FB7D012B05D1394B1B6C6C
:1038E800384A23F0805313647B689B69002B00F0EF
:1038F800A180344B9B6803F00C03082B5CD07B68D9
:103908009B69022B41D1314B00221A60FEF742FF1E
:10391800386108E0FEF73EFF02463B69D31A022BE6
:1039280001D9032387E0274B1B6803F00073002BA2
:10393800F0D17B68DA697B681B6A1A437B685B6A2B
:103948009B011A437B689B6A5B08013B1B041A4373
:103958007B68DB6A1B061B4913434B601B4B012228
:103968001A60FEF717FF386108E0FEF713FF0246FA
:103978003B69D31A022B01D903235CE0114B1B6866
:1039880003F00073002BF0D054E0104B00221A60B3
:10399800FEF700FF386108E0FEF7FCFE02463B69CF
:1039A800D31A022B01D9032345E0064B1B6803F009
:1039B8000073002BF0D13DE07B689B69012B07D198
:1039C800012338E0003802400070004060004742A0
:1039D8001B4B5B68FB607B689B69012B28D0FB68ED
:1039E80003F480027B68DB699A4221D1FB6803F00B
:1039F8003F027B681B6A9A421AD1FA6847F6C0737D
:103A080013407A68526A9201934211D1FB6803F419
:103A180040327B689B6A5B08013B1B049A4207D1D2
:103A2800FB6803F070627B68DB6A1B069A4201D070
:103A3800012300E0002318461837BD4680BD00BFAB
:103A48000038024080B584B000AF786039607B6888
:103A5800002B01D10123CCE0684B1B6803F007035E
:103A68003A689A420CD9654B3A68D2B21A70634BDD
:103A78001B6803F007033A689A4201D00123B8E0B3
:103A88007B681B6803F00203002B20D07B681B684F
:103A980003F00403002B05D0594B9B68584A43F4A4
:103AA800E05393607B681B6803F00803002B05D084
:103AB800534B9B68524A43F460439360504B9B6856
:103AC80023F0F0027B689B684D4913438B607B6849
:103AD8001B6803F00103002B44D07B685B68012B53
:103AE80007D1474B1B6803F40033002B19D101237E
:103AF8007FE07B685B68022B03D07B685B68032BE5
:103B080007D13F4B1B6803F00073002B09D1012339
:103B18006FE03B4B1B6803F00203002B01D101232C
:103B280067E0374B9B6823F003027B685B68344986
:103B380013438B60FEF72EFEF8600AE0FEF72AFEBC
:103B48000246FB68D31A41F28832934201D9032313
:103B58004FE02B4B9B6803F00C027B685B689B0073
:103B68009A42EBD1254B1B6803F007033A689A4247
:103B78000CD2224B3A68D2B21A70204B1B6803F061
:103B880007033A689A4201D0012332E07B681B6838
:103B980003F00403002B08D0194B9B6823F4E05270
:103BA8007B68DB68164913438B607B681B6803F0EE
:103BB8000803002B09D0124B9B6823F460427B68F2
:103BC8001B69DB000E4913438B6000F021F80246A5
:103BD8000B4B9B681B0903F00F030A49CB5C22FAC5
:103BE80003F3094A1360094B1B681846FEF78EFD5C
:103BF800002318461037BD4680BD00BF003C024078
:103C080000380240B8570008180000201C000020A7
:103C18002DE9B04F90B000AF00237B630023FB6316
:103C280000233B630023BB63594B9B6803F00C03E1
:103C3800082B0DD0082B00F2A180002B02D0042BFA
:103C480003D09BE0534BBB639BE0534BBB6398E0B3
:103C58004F4B5B6803F03F037B634D4B5B6803F49A
:103C68008003002B28D04A4B5B689B0900223B62EB
:103C78007A623B6AC3F308000021474B03FB01F259
:103C8800002300FB03F31344434AA0FB0212FA6229
:103C98000A46BA62FA6A1344FB627B6B0022BB6174
:103CA800FA61D7E90623D7E90A01FCF791FA024637
:103CB8000B461346FB6353E0354B5B689B090022B8
:103CC8003B617A613B69C3F3080A4FF0000B524627
:103CD8005B464FF000004FF00001590141EAD26104
:103CE800500102460B46B2EB0A0863EB0B094FF092
:103CF80000024FF000034FEA891343EA98634FEA42
:103D08008812B2EB080463EB09054FF000024FF08C
:103D18000003EB0043EA5473E20014461D4614EB1B
:103D28000A033B6045EB0B037B604FF000024FF04A
:103D38000003D7E9004529468B02214643EA9153FF
:103D480021468A02104619467B6B0022BB60FA6046
:103D5800D7E90223FCF73CFA02460B461346FB63FD
:103D68000B4B5B681B0C03F0030301335B003B63E5
:103D7800FA6B3B6BB2FBF3F3BB6302E0054BBB632F
:103D880000BFBB6B18464037BD46BDE8B08F00BFCB
:103D9800003802400024F40040787D0180B400AF70
:103DA800034B1B681846BD465DF8047B704700BF8F
:103DB8001800002080B500AFFFF7F0FF0246054B62
:103DC8009B689B0A03F007030349CB5C22FA03F3C1
:103DD800184680BD00380240C857000880B500AFBB
:103DE800FFF7DCFF0246054B9B685B0B03F00703FC
:103DF8000349CB5C22FA03F3184680BD0038024021
:103E0800C857000880B582B000AF78607B68002B87
:103E180001D101233FE07B6893F83D30DBB2002BF2
:103E280006D17B68002283F83C207868FEF7B8FA50
:103E38007B68242283F83D207B681B68DA687B68EE
:103E48001B6822F40052DA60786800F043FF7B6850
:103E58001B681A697B681B6822F490421A617B68A8
:103E68001B685A697B681B6822F02A025A617B68C2
:103E78001B68DA687B681B6842F40052DA607B686A
:103E880000221A647B68202283F83D207B68202268
:103E980083F83E20002318460837BD4680BD000041
:103EA80080B58CB000AFF860B9601346FB80FB6842
:103EB80093F83D30DBB2202B65D1BB68002B02D0D4
:103EC800FB88002B01D101235EE0FB6893F83C30AE
:103ED800012B01D1022357E0FB68012283F83C2023
:103EE800BA68FB681A62FB68FA889A84FB68FA88E1
:103EF800DA84FB6800221A64FB68212283F83D20DB
:103F0800FB685B6B224ADA63FB685B6B214A1A64C5
:103F1800FB685B6B204ADA64FB685B6B00221A65FE
:103F280007F10803FB62FB68586BFB6A1968FB68BA
:103F38001B6804331A46FB88FEF71CFEFB681B68E7
:103F48006FF040021A60FB68002283F83C20FB688F
:103F58001B681433BB61BB6953E8003F7B617B6915
:103F680043F08003BB62FB681B681433BA6A7A6249
:103F78003B62396A7A6A41E80023FB61FB69002BDE
:103F8800E5D1002300E0022318463037BD4680BD46
:103F9800754500080F4600088747000880B584B0BB
:103FA80000AFF860B9601346FB80FB6893F83E30B9
:103FB800DBB2202B1DD1BB68002B02D0FB88002B65
:103FC80001D1012316E0FB6893F83C30012B01D1A5
:103FD80002230FE0FB68012283F83C20FB680022E3
:103FE8001A63FB881A46B968F86800F013FC0346A0
:103FF80000E0022318461037BD4680BD80B5BAB030
:1040080000AF78607B681B681B68C7F8E4307B6882
:104018001B68DB68C7F8E0307B681B685B69C7F81A
:10402800DC300023C7F8D8300023C7F8D430D7F8DD
:10403800E43003F00F03C7F8D830D7F8D830002B96
:104048000FD1D7F8E43003F02003002B09D0D7F8BC
:10405800E03003F02003002B03D0786800F07FFDE8
:1040680056E2D7F8D830002B00F0DE80D7F8DC30E5
:1040780003F00103002B06D1D7F8E03003F4907366
:10408800002B00F0D180D7F8E43003F00103002BB7
:104098000BD0D7F8E03003F48073002B05D07B6891
:1040A8001B6C43F001027B681A64D7F8E43003F014
:1040B8000403002B0BD0D7F8DC3003F00103002BEE
:1040C80005D07B681B6C43F002027B681A64D7F842
:1040D800E43003F00203002B0BD0D7F8DC3003F0F8
:1040E8000103002B05D07B681B6C43F004027B683E
:1040F8001A64D7F8E43003F00803002B11D0D7F87E
:10410800E03003F02003002B05D1D7F8DC3003F0B2
:104118000103002B05D07B681B6C43F008027B6809
:104128001A647B681B6C002B00F0ED81D7F8E43033
:1041380003F02003002B08D0D7F8E03003F0200369
:10414800002B02D0786800F00AFD7B681B685B6969
:1041580003F04003402B0CBF01230023DBB2C7F858
:10416800D4307B681B6C03F00803002B03D1D7F80D
:10417800D430002B4FD0786800F012FC7B681B68A5
:104188005B6903F04003402B41D17B681B68143303
:10419800C7F89C30D7F89C3053E8003FC7F89830F0
:1041A800D7F8983023F04003C7F8D0307B681B68F5
:1041B8001433D7F8D020C7F8A820C7F8A430D7F808
:1041C800A410D7F8A82041E80023C7F8A030D7F8F2
:1041D800A030002BD9D17B689B6B002B13D07B6858
:1041E8009B6B7D4A1A657B689B6B1846FEF78AFDB8
:1041F8000346002B16D07B689B6B1B6D7A68926B0D
:10420800104698470EE0786800F09AF90AE0786856
:1042180000F096F906E0786800F092F97B680022D1
:104228001A6470E100BF6EE17B681B6B012B40F0E4
:104238004A81D7F8E43003F01003002B00F04381E3
:10424800D7F8E03003F01003002B00F03C81002386
:10425800BB607B681B681B68BB607B681B685B680E
:10426800BB60BB687B681B685B6903F04003402B3D
:1042780040F0B4807B689B6B1B685B68A7F8BE3016
:10428800B7F8BE30002B00F040817B689B8DB7F8F3
:10429800BE209A4280F039817B68B7F8BE20DA8563
:1042A8007B689B6BDB69B3F5807F00F088807B6857
:1042B8001B680C33C7F88830D7F8883053E8003FBC
:1042C800C7F88430D7F8843023F48073C7F8B8303F
:1042D8007B681B680C33D7F8B820C7F89420C7F858
:1042E8009030D7F89010D7F8942041E80023C7F809
:1042F8008C30D7F88C30002BD9D17B681B681433ED
:104308007B677B6F53E8003F3B673B6F23F00103FC
:10431800C7F8B4307B681B681433D7F8B420C7F8E3
:104328008020FB67F96FD7F8802041E80023BB673E
:10433800BB6F002BE1D17B681B6814333B663B6E77
:1043480053E8003FFB65FB6D23F04003C7F8B0302E
:104358007B681B681433D7F8B020FA66BB66B96E61
:10436800FA6E41E800237B667B6E002BE3D17B6805
:10437800202283F83E207B6800221A637B681B6832
:104388000C33FB64FB6C53E8003FBB64BB6C23F04D
:104398001003C7F8AC307B681B680C33D7F8AC2027
:1043A800BA657B65796DBA6D41E800233B653B6D65
:1043B800002BE3D17B689B6B1846FEF733FC7B68C8
:1043C8009A8D7B68DB8D9BB2D31A9BB219467868AD
:1043D80000F0C0F899E000BF6F4A00087B689A8D2A
:1043E8007B68DB8D9BB2D31AA7F8CE307B68DB8D58
:1043F8009BB2002B00F08B80B7F8CE30002B00F07A
:1044080086807B681B680C33BB63BB6B53E8003F3B
:104418007B637B6B23F49073C7F8C8307B681B6899
:104428000C33D7F8C8207A643B64396C7A6C41E85D
:104438000023FB63FB6B002BE3D17B681B68143301
:104448007B627B6A53E8003F3B623B6A23F00103CF
:10445800C7F8C4307B681B681433D7F8C4203A63A4
:10446800FB62F96A3A6B41E80023BB62BB6A002B26
:10447800E3D17B68202283F83E207B6800221A6300
:104488007B681B680C333B613B6953E8003FFB606A
:10449800FB6823F01003C7F8C0307B681B680C3337
:1044A800D7F8C020FA61BB61B969FA6941E800230D
:1044B8007B617B69002BE3D1B7F8CE301946786869
:1044C80000F048F823E0D7F8E43003F08003002B2D
:1044D80009D0D7F8E03003F08003002B03D07868C8
:1044E80000F0D5FA14E0D7F8E43003F04003002BCD
:1044F8000ED0D7F8E03003F04003002B08D07868DE
:1045080000F015FB04E000BF02E000BF00E000BFC0
:10451800E837BD4680BD00BF80B483B000AF786087
:1045280000BF0C37BD465DF8047B704780B483B08C
:1045380000AF786000BF0C37BD465DF8047B70475C
:1045480080B483B000AF786000BF0C37BD465DF81B
:10455800047B704780B483B000AF78600B467B80E3
:1045680000BF0C37BD465DF8047B704780B590B03E
:1045780000AF78607B689B6BFB637B681B681B687C
:1045880003F48073002B37D1FB6B0022DA84FB6BBA
:104598001B6814337B627B6A53E8003F3B623B6ACB
:1045A80023F08003BB63FB6B1B681433BA6B3A635D
:1045B800FB62F96A3A6B41E80023BB62BB6A002BD5
:1045C800E5D1FB6B1B680C333B613B6953E8003F4B
:1045D800FB60FB6843F040037B63FB6B1B680C3399
:1045E8007A6BFA61BB61B969FA6941E800237B61BA
:1045F8007B69002BE5D102E0F86BFDF74DF900BFB0
:104608004037BD4680BD80B584B000AF78607B6818
:104618009B6BFB60F868FFF77FFF00BF1037BD4654
:1046280080BD80B59CB000AF78607B689B6BFB66F3
:104638007B681B681B6803F48073002B72D1FB6EC8
:104648000022DA85FB6E1B680C33FB64FB6C53E8B5
:10465800003FBB64BB6C23F48073BB66FB6E1B68B6
:104668000C33BA6EBA657B65796DBA6D41E8002383
:104678003B653B6D002BE5D1FB6E1B681433BB63B8
:10468800BB6B53E8003F7B637B6B23F001037B66C6
:10469800FB6E1B6814337A6E7A643B64396C7A6CEF
:1046A80041E80023FB63FB6B002BE5D1FB6E1B6825
:1046B80014337B627B6A53E8003F3B623B6A23F01A
:1046C80040033B66FB6E1B6814333A6E3A63FB6229
:1046D800F96A3A6B41E80023BB62BB6A002BE5D15B
:1046E800FB6E202283F83E20FB6E1B6B012B19D139
:1046F800FB6E1B680C333B613B6953E8003FFB6072
:10470800FB6823F01003FB65FB6E1B680C33FA6D26
:10471800FA61BB61B969FA6941E800237B617B6989
:10472800002BE5D1FB6E1B6B012B06D1FB6E9B8D1D
:104738001946F86EFFF70EFF02E0F86EFDF7BEF8B7
:1047480000BF7037BD4680BD80B584B000AF7860CB
:104758007B689B6BFB60FB681B6B012B08D1FB68BC
:104768009B8D5B089BB21946F868FFF7F3FE02E0E1
:10477800F868FFF7DBFE00BF1037BD4680BD80B587
:1047880084B000AF78600023FB607B689B6BBB60E4
:10479800BB681B685B6903F08003802B0CBF012397
:1047A8000023DBB2FB60BB6893F83D30DBB2212B02
:1047B80008D1FB68002B05D0BB680022DA84B868F2
:1047C80000F0C6F8BB681B685B6903F04003402B28
:1047D8000CBF01230023DBB2FB60BB6893F83E30BB
:1047E800DBB2222B08D1FB68002B05D0BB68002266
:1047F800DA85B86800F0D4F8BB681B6C43F0100287
:10480800BB681A64B868FFF79BFE00BF1037BD4647
:1048180080BD000080B598B000AFF860B96013465D
:10482800FB80BA68FB689A62FB68FA889A85FB681D
:1048380000221A64FB68222283F83E20FB689B6BE7
:10484800404ADA63FB689B6B3F4A1A64FB689B6BC0
:104858003E4ADA64FB689B6B00221A6507F108037D
:10486800FB65FB68986BFB681B6804331946FB6D96
:104878001A68FB88FEF77EF900233B61FB681B681A
:104888001B683B61FB681B685B683B613B69FB68B5
:10489800002283F83C20FB681B69002B19D0FB68B9
:1048A8001B680C333B643B6C53E8003FFB63FB6BBA
:1048B80043F48073BB65FB681B680C33BA6DFA64FC
:1048C800BB64B96CFA6C41E800237B647B6C002BF9
:1048D800E5D1FB681B681433FB62FB6A53E8003FB1
:1048E800BB62BB6A43F001037B65FB681B6814333A
:1048F8007A6DBA637B63796BBA6B41E800233B63DB
:104908003B6B002BE5D1FB681B681433BB61BB69AB
:1049180053E8003F7B617B6943F040033B65FB68DC
:104928001B6814333A6D7A623B62396A7A6A41E8E5
:104938000023FB61FB69002BE5D100231846603793
:10494800BD4680BD2B460008514700088747000830
:1049580080B489B000AF78607B681B680C33FB605B
:10496800FB6853E8003FBB60BB6823F0C003FB61F2
:104978007B681B680C33FA69BA617B617969BA692B
:1049880041E800233B613B69002BE5D17B6820228D
:1049980083F83D2000BF2437BD465DF8047B70478F
:1049A80080B495B000AF78607B681B680C337B637C
:1049B8007B6B53E8003F3B633B6B23F49073FB64D2
:1049C8007B681B680C33FA6C3A64FB63F96B3A6CCE
:1049D80041E80023BB63BB6B002BE5D17B681B68F8
:1049E80014333B623B6A53E8003FFB61FB6923F0E9
:1049F8000103BB647B681B681433BA6CFA62BB6240
:104A0800B96AFA6A41E800237B627B6A002BE5D128
:104A18007B681B6B012B19D17B681B680C33FB600F
:104A2800FB6853E8003FBB60BB6823F010037B645E
:104A38007B681B680C337A6CBA617B617969BA69E7
:104A480041E800233B613B69002BE5D17B682022CC
:104A580083F83E207B6800221A6300BF5437BD46A6
:104A68005DF8047B704780B584B000AF78607B68E0
:104A78009B6BFB60FB680022DA85FB680022DA8406
:104A8800F868FFF75DFD00BF1037BD4680BD80B4F4
:104A980085B000AF78607B6893F83D30DBB2212B9E
:104AA8003ED17B689B68B3F5805F14D17B681B6936
:104AB800002B10D17B681B6AFB60FB681B881A46B9
:104AC8007B681B68C2F308025A607B681B6A9A1CE1
:104AD8007B681A6208E07B681B6A591C7A68116255
:104AE8001A787B681B685A607B68DB8C9BB2013B39
:104AF8009BB27A681946D184002B0FD17B681B685A
:104B0800DA687B681B6822F08002DA607B681B68C1
:104B1800DA687B681B6842F04002DA60002300E034
:104B2800022318461437BD465DF8047B704780B5EC
:104B380082B000AF78607B681B68DA687B681B68A6
:104B480022F04002DA607B68202283F83D207868F2
:104B5800FCF7A2FE002318460837BD4680BD80B585
:104B68008CB000AF78607B6893F83E30DBB2222BC4
:104B780040F0AB807B689B68B3F5805F17D17B689A
:104B88001B69002B13D10023FB627B689B6ABB6205
:104B98007B681B685B689BB2C3F308039AB2BB6A65
:104BA8001A807B689B6A9A1C7B689A6226E07B68FD
:104BB8009B6AFB620023BB627B689B68B3F5805FDE
:104BC80007D07B689B68002B0AD17B681B69002B88
:104BD80006D17B681B685B68DAB2FB6A1A7008E06A
:104BE8007B681B685B68DBB203F07F03DAB2FB6AA1
:104BF8001A707B689B6A5A1C7B689A627B68DB8D9B
:104C08009BB2013B9BB27A681946D185002B5AD1D9
:104C18007B681B68DA687B681B6822F02002DA6010
:104C28007B681B68DA687B681B6822F48072DA602C
:104C38007B681B685A697B681B6822F001025A610D
:104C48007B68202283F83E207B681B6B012B35D1C3
:104C58007B6800221A637B681B680C337B617B6965
:104C680053E8003F3B613B6923F010037B627B689C
:104C78001B680C337A6A3A62FB61F9693A6A41E85F
:104C88000023BB61BB69002BE5D17B681B681B68EF
:104C980003F01003102B0AD10023FB607B681B680C
:104CA8001B68FB607B681B685B68FB60FB687B6854
:104CB8009B8D19467868FFF74DFC02E07868FCF791
:104CC800FDFD002302E0002300E0022318463037F0
:104CD800BD4680BD2DE9B04FC0B000AFC7F8F400A5
:104CE800D7F8F4301B681B6923F44050D7F8F43028
:104CF800D968D7F8F4301A6840EA01031361D7F885
:104D0800F4309A68D7F8F4301B691A43D7F8F430AE
:104D18005B691A43D7F8F430DB691343C7F8F830F6
:104D2800D7F8F4301B68DB6823F4164121F00C0136
:104D3800D7F8F4301A68D7F8F8300B43D360D7F8AF
:104D4800F4301B685B6923F44070D7F8F430996934
:104D5800D7F8F4301A6840EA01035361D7F8F43001
:104D68001A688F4B9A4205D0D7F8F4301A688D4BE1
:104D78009A4204D1FFF732F8C7F8FC0003E0FFF7C6
:104D880019F8C7F8FC00D7F8F430DB69B3F5004F21
:104D980040F00C81D7F8FC300022C7F8E830C7F89B
:104DA800EC20D7E93A4522462B469118B9655B4174
:104DB800FB65D7E91623214612EB0108294643EB88
:104DC80001094FF000024FF000034FEAC90343EA1C
:104DD80058734FEAC80290469946234618EB0303D6
:104DE800C7F8E0302B4649EB0303C7F8E430D7F89F
:104DF800F4305B680022C7F8D830C7F8DC20D7E960
:104E080036120B46DB183B65134642EB03037B6502
:104E1800D7E91423D7E93801FBF7DAF902460B463C
:104E2800614BA3FB02235B091C01D7F8FC3000226D
:104E3800C7F8D030C7F8D420D7E9348942464B4662
:104E48009118B9645B41FB64D7E91223414612EB20
:104E5800010A494643EB010B4FF000024FF00003F3
:104E68004FEACB0343EA5A734FEACA0292469B467B
:104E780043461AEB0303C7F8C8304B464BEB030312
:104E8800C7F8CC30D7F8F4305B680022C7F8C030D8
:104E9800C7F8C420D7E930120B46DB183B64134629
:104EA80042EB03037B64D7E91023D7E93201FBF710
:104EB8008FF902460B4611463B4BA3FB01235B09C6
:104EC800642202FB03F3CB1ADB0003F13202364BF8
:104ED800A3FB02235B095B0003F4F8731C44D7F8B7
:104EE800FC300022C7F8B830C7F8BC20D7E92E89B3
:104EF80042464B469118B9635B41FB63D7E90E23E1
:104F080041465118396349464B417B634FF00002D3
:104F18004FF00003D7E90CAB5946CB00514643EAA2
:104F280051735146CA0010461946034642469B181B
:104F3800C7F8B0304B460A4642EB0303C7F8B43013
:104F4800D7F8F4305B680022C7F8A830C7F8AC205F
:104F5800D7E92A120B46DB18BB62134642EB030360
:104F6800FB62D7E90A23D7E92C01FBF731F902469E
:104F78000B460D4BA3FB02135B09642101FB03F3F2
:104F8800D31ADB003233084AA2FB03235B0903F080
:104F98000702D7F8F4301B6822449A6005E100BF85
:104FA80000100140001401401F85EB51D7F8FC3078
:104FB8000022C7F8A030C7F8A420D7E928894246BC
:104FC8004B46911839625B417B62D7E90823414619
:104FD8005418494643EB01054FF000024FF0000317
:104FE800EB0043EA5473E20014461D464346E318B7
:104FF800C7F898304B4645EB0303C7F89C30D7F801
:10500800F4305B680022C7F89030C7F894204FF05E
:1050180000024FF00003D7E9244529468B002146BA
:1050280043EA917321468A00D7E92601FBF7D0F8B5
:1050380002460B46604BA3FB02235B091C01D7F811
:10504800FC300022C7F88830C7F88C20D7E92289BD
:1050580042464B469118B9615B41FB61D7E906238B
:1050680041465118396149464B417B614FF0000276
:105078004FF00003D7E904AB5946CB00514643EA49
:1050880051735146CA0010461946034642469B18BA
:10509800C7F880304B460A4642EB0303C7F8843012
:1050A800D7F8F4305B680022BB67FA674FF000025C
:1050B8004FF00003D7E91E8949468B00414643EA71
:1050C800917341468A00D7E92001FBF781F802462F
:1050D8000B46394BA3FB02135B09642101FB03F365
:1050E800D31A1B013233344AA2FB03235B0903F0B2
:1050F800F0031C44D7F8FC3000223B677A67D7E9F5
:105108001C8942464B469118B9605B41FB60D7E960
:10511800022341465118396049464B417B604FF0A4
:1051280000024FF00003D7E900AB5946CB005146C7
:1051380043EA51735146CA0010461946034642468F
:105148009B18BB664B460A4642EB0303FB66D7F83F
:10515800F4305B6800223B667A664FF000024FF03D
:105168000003D7E9188949468B00414643EA917301
:1051780041468A00D7E91A01FBF72AF802460B468E
:105188000D4BA3FB02135B09642101FB03F3D31A44
:105198001B013233084AA2FB03235B0903F00F0209
:1051A800D7F8F4301B6822449A6000BF07F580776F
:1051B800BD46BDE8B08F00BF1F85EB5108B500F0B4
:1051C8000DF808B5804700F00EF80000024B18688B
:1051D800BFF35B8F704700BF2400002008B5FFF7BE
:1051E800F5FFFFF7EEFF08B5062000F073F8012081
:1051F800FDF7EEF9014B1868704700BF2800002042
:1052080070B50D4D0D4C641BA4100026A64209D1A3
:105218000B4D0C4C00F0B0F9641BA4100026A642FC
:1052280005D170BD55F8043B98470136EEE755F8AF
:10523800043B98470136F2E7E0570008E0570008BA
:10524800E0570008E85700080A44914200F1FF338C
:1052580000D1704710B511F8014B03F8014F914286
:10526800F9D110BD02440346934200D1704703F8B8
:10527800011BF9E7024B0A460146186800F0DAB844
:10528800280000201F2938B504460D4604D91623E6
:1052980003604FF0FF3038BD426C12B152F8213034
:1052A8004BB9204600F030F82A4601462046BDE8B2
:1052B800384000F017B8012B0AD0591C03D1162327
:1052C80003600120E7E7002442F825402846984774
:1052D8000020E0E7024B01461868FFF7D3BF00BF84
:1052E8002800002038B5074D00230446084611461B
:1052F8002B60FDF75DF9431C02D12B6803B12360D5
:1053080038BD00BF180B0020FDF74AB970B50E4E26
:105318000C463168054611B900F0BCF830602146EA
:10532800284600F0B7F8431C0AD0C41C24F0030434
:10533800A04207D0211A284600F0ACF8013001D16C
:105348004FF0FF34204670BD140B00202DE9F041CA
:10535800CD1C25F0030508350C2D38BF0C25002D74
:10536800074601DBA94205D90C233B6000263046DD
:10537800BDE8F0812E4E00F09DF833681C4634BB22
:1053880029463846FFF7C2FF431C04464DD134680E
:105398002646002E40D123683146384604EB0308E0
:1053A80000F078F880453AD1216803356D1A25F068
:1053B800030508350C2D38BF0C2529463846FFF75C
:1053C800A5FF01302BD023682B4423600EE0226810
:1053D800521B1ED40B2A16D96119A342256018BF87
:1053E8005960636808BF316062514B60384604F108
:1053F8000B0600F065F826F00706231DF21AB6D052
:105408009B1BA350B3E76268A3420CBF32605A608B
:10541800ECE723466468B2E734467668B9E70C23BC
:105428003B60384600F04CF8A1E72560DEE700BF96
:10543800100B00202DE9F041804614460E4621B994
:10544800BDE8F0411146FFF781BF2AB900F03EF8E8
:1054580025462846BDE8F08100F084F884420746D6
:1054680002D8B4EB500F12D821464046FFF76EFF22
:1054780005460028EDD0BC422246314628BF3A46B0
:10548800FFF7E2FE3146404600F020F8E1E73546F6
:10549800DFE7000038B5064D0023044608462B60B8
:1054A800FDF7A0F8431C02D12B6803B1236038BD77
:1054B800180B0020014800F05DB800BF1C0B00204D
:1054C800014800F058B800BF1C0B002037B5002970
:1054D80044D051F8043C0190002BA1F10404B8BF5A
:1054E800E418FFF7E7FF1E4A0198136833B96360B1
:1054F800146003B0BDE83040FFF7E2BFA34208D90B
:10550800256861198B4201BF19685B6849192160D8
:10551800EDE71A465B680BB1A342FAD91168551832
:10552800A5420BD1246821445418A3421160E0D14C
:105538001C685B68536021441160DAE702D90C23C8
:105548000360D6E7256861198B4204BF19685B6858
:10555800636004BF491921605460CAE703B030BDD5
:10556800100B002051F8043C181F002BBCBF0B582F
:10557800C018704770477047F8B500BFF8BC08BC42
:105588009E467047F8B500BFF8BC08BC9E467047F9
:105598007374645F6D7367732F54696D65000000E1
:1055A80063643731363663373463353532633331C4
:1055B80031666263633266653561376263323839F2
:1055C8000000000000000000726F7373657269616B
:1055D8006C5F6D7367732F546F706963496E666F84
:1055E8000000000030616435316638386663343451
:1055F80038393266386331303638343037373634F4
:105608003630303500000000726F7373657269615F
:105618006C5F6D7367732F4C6F6700003131616287
:105628006437333163323539333332363163643674
:105638003138336264313264363239350000000063
:105648003966306539386264613635393831393808
:105658003664646635336166613761343065343980
:10566800000000007374645F6D7367732F53747266
:10567800696E6700393932636538613136383763A6
:105688006563386338626438383365633733636118
:1056980034316431000000004D6573736167652023
:1056A80066726F6D206465766963652064726F70D9
:1056B8007065643A206D657373616765206C61720B
:1056C800676572207468616E206275666665722E01
:1056D800000000006368617474657200726F737310
:1056E800657269616C5F6D7367732F52657175655B
:1056F8007374506172616D000000000000000000CA
:10570800E5200008751A00082D2300080000000095
:105718000000000089160008DB1600085917000869
:10572800751700080000000000000000C5510008BF
:10573800C5510008C5510008000000000000000025
:105748005D0E00087F100008611300087D13000833
:105758000000000000000000D50C0008390D00080A
:10576800C90D0008E50D0008000000000000000059
:1057780061090008970A0008690C0008850C0008F0
:105788000000000000000000690700081908000870
:10579800E1080008FD080008000000000000000003
:1057A800C5510008C5510008C5510008C551000879
:1057B80000000000000000000102030406070809B9
:1057C800000000000102030400061016000610166F
:0857D80030AAFF7F0100000070
:0857E000AD0100084723000899
:0457E800890100082B
:1057EC0048656C6C6F20776F726C642066726F6D9D
:1057FC002053544D333221000024F40010000000DB
:10580C0001000000EF5100082C00002000000000F7
:10581C00000000000000000000000000000000007C
:10582C00000000000000000000000000000000006C
:10583C00000000000000000000000000000000005C
:10584C00000000000000000000000000000000004C
:10585C00000000000000000000000000000000003C
:0C586C0000000000000000000000000030
:040000050800267D4C
:00000001FF
